:020000040000FA
:1000000000560020250200002D0200002F020000F3
:100010003102000033020000350200000000000041
:100020000000000000000000000000003702000097
:1000300039020000000000003B02000039320100DC
:100040003F0200003F0200003F0200003F020000AC
:100050003F0200003F0200003F0200003F0200009C
:100060003F0200003F020000613301003F02000038
:10007000ED3301003F0200003F0200003F0200009C
:100080003D30000081300000CD3000000D31000017
:100090003F020000513100003F0200003F0200001B
:1000A000790400003F0200003F0200003F02000010
:1000B0003F0200003F0200003F0200003F0200003C
:1000C0003F0200003F0200003F02000085E0000008
:1000D0003F0200003F0200003F0200003F0200001C
:1000E00099E1000000000000000000000000000096
:1000F0000000000000000000000000000000000000
:1001000000000000000000000000000000000000EF
:1001100000000000000000000000000000000000DF
:1001200000000000000000000000000000000000CF
:1001300000000000000000000000000000000000BF
:100140000000000000F002F800F05CF80AA090E85F
:10015000000C82448344AAF10107DA4501D100F082
:1001600051F8AFF2090EBAE80F0013F0010F18BFF3
:10017000FB1A43F00103184700E9010020E90100E0
:100180000A444FF0000C10F8013B13F0070408BFBD
:1001900010F8014B1D1108BF10F8015B641E05D05B
:1001A00010F8016B641E01F8016BF9D113F0080F10
:1001B0001EBF10F8014BAD1C0C1B09D16D1E58BFA2
:1001C00001F801CBFAD505E014F8016B01F8016BD9
:1001D0006D1EF9D59142D6D370470000002300244C
:1001E00000250026103A28BF78C1FBD8520728BF47
:1001F00030C148BF0B6070471FB51BF076FC1FBDB8
:1002000010B510BD00F002F91146FFF7F5FF18F028
:1002100067FE00F020F903B4FFF7F2FF03BC00F023
:1002200023F900000948804709480047FEE7FEE738
:10023000FEE7FEE7FEE7FEE7FEE7FEE7FEE7FEE796
:1002400004480549034A054B704700004932010044
:1002500045010000005400200056002000540020FA
:10026000032A40F2308010F0030C00F0158011F8E2
:10027000013BBCF1020F624498BF11F801CB00F8BA
:10028000013B38BF11F8013BA2F1040298BF00F80E
:1002900001CB38BF00F8013B11F0030300F02580CB
:1002A000083AC0F0088051F8043B083A51F804CBF2
:1002B000A0E80810F5E7121D5CBF51F8043B40F8B8
:1002C000043BAFF30080D20724BF11F8013B11F8C3
:1002D00001CB48BF11F8012B24BF00F8013B00F807
:1002E00001CB48BF00F8012B704710B5203AC0F091
:1002F0000B80B1E81850203AA0E81850B1E8185027
:10030000A0E81850BFF4F5AF5FEA027C24BFB1E863
:100310001850A0E8185044BF18C918C0BDE81040D4
:100320005FEA827C24BF51F8043B40F8043B08BFDD
:100330007047D20728BF31F8023B48BF11F8012BA4
:1003400028BF20F8023B48BF00F8012B70474FF050
:1003500000020429C0F0128010F0030C00F01B8092
:10036000CCF1040CBCF1020F18BF00F8012BA8BFA0
:1003700020F8022BA1EB0C0100F00DB85FEAC17C64
:1003800024BF00F8012B00F8012B48BF00F8012B17
:1003900070474FF0000200B5134694469646203948
:1003A00022BFA0E80C50A0E80C50B1F12001BFF42E
:1003B000F7AF090728BFA0E80C5048BF0CC05DF894
:1003C00004EB890028BF40F8042B08BF704748BFE2
:1003D00020F8022B11F0804F18BF00F8012B704756
:1003E00070477047704710B500F008F8006810BDFE
:1003F00010B5044600F002F8046010BD00487047D4
:100400009C530020004870479C5300207546FFF71E
:10041000F9FFAE4605006946534620F007008546C1
:1004200018B020B5FFF70CFFBDE820404FF00006E4
:100430004FF000074FF000084FF0000B21F00701CC
:10044000AC46ACE8C009ACE8C009ACE8C009ACE80F
:10045000C0098D46704710B50446AFF300802046B2
:10046000BDE81040FFF7D7BE01491820ABBEFEE73C
:10047000260002007047000070B50E490968886EBA
:10048000804704460D460B480068C26E2046294648
:100490009047012304EA03000021484049400843F3
:1004A00006D004480068416C012088470249088052
:1004B00070BD000004080002C808002010B51E49E5
:1004C0000968086880471C48006800234FF4400210
:1004D00019468468D010A0471748203000680322CE
:1004E0001021C36905209847134800680121026A5A
:1004F0000846904710480068002301221946046B03
:100500001046A0470C480068416F002088470A4900
:100510000968486A804708490968086F80470648A3
:100520000068C26D01200021904703482830006810
:1005300081692820884710BD0408000230B587B0C3
:10054000002400200490059006907E48007805283D
:1005500073DC002039E07C4991ED000AF3EE040AD7
:10056000B4EEE00AF1EE10FA2AD8784991F8541066
:10057000012925D100241BE07449483101EB840195
:1005800091ED000ADFED720A60EE200A9FED711A0C
:1005900080EE810A04A901EB8401D1ED000A30EE5E
:1005A000200A04A901EB840181ED000A611C8CB2D0
:1005B000032CE1DB411C88B20021644A82F854100C
:1005C0000121654A5F4B1B78D154B0F57A7FC2DBBD
:1005D000DDED040A00EE100AB8EE400A80EE801A43
:1005E0005849097801EB41015C4A02EB810181ED38
:1005F000001ADDED050A00EE100AB8EE400A80EEA2
:10060000801A5049097801EB410102EB810181ED2B
:10061000011ADDED060A00EE100AB8EE400A80EE7F
:10062000801A4849097801EB410102EB810181ED13
:10063000021A0621434A117000BF47480078464914
:10064000497808404449897808404349C9780840B6
:1006500041490979084040494979084000286FD04C
:100660003F48007800286BD101203D4908700020E8
:100670003C4908703C4A3D49384801F0DDF83C49A6
:100680000870002504E0002033494855681C85B2F5
:10069000062DF8DB36480078012839D13348D0EDF3
:1006A000021AB0EE611AD0ED011AF0EE610AD0ED37
:1006B000001AB0EE610A2F49022014F075F82A489A
:1006C000D0ED021AB0EE611AD0ED011AF0EE610A17
:1006D000D0ED001AB0EE610A2649052014F064F846
:1006E0000DF0E6FD00202449088001210222034686
:1006F000B6EE000ACDE9002102904FF47A7240F67E
:10070000B8311E4800F098FC01201D49487213E0E2
:10071000002019490880012102220346B6EE000A92
:10072000CDE900210290C82241F28831134800F03F
:1007300083FC002013490880012007B030BDFFE78B
:100740000020FAE7D1000020700C00209035002036
:100750000AE81C4100000045D30000205C0E002088
:10076000D9000020D2000020C4000020380E002054
:10077000D0000020F03E002008000020F00D0020F6
:10078000224F0020F402002010B52DED028B84B022
:100790000024FE480088B0F57A7F2ED1FC48B0F9DD
:1007A00000001AF0D4FD41EC180B9FEDFA0B53EC4E
:1007B000102B1AF031FF20D8F848B0F900001AF0D9
:1007C000C6FD41EC180B9FEDF60B53EC102B1AF005
:1007D000E9FD12D8F448B0F900001AF0B8FD41EC78
:1007E000180B9FEDF20B53EC102B1AF015FF04D8E9
:1007F000F0480088401CEF490880E4480088B0F5C4
:100800007A7F2ED1E248B0F900001AF0A0FD41EC49
:10081000180B9FEDE00B53EC102B1AF0FDFE20D8C7
:10082000DE48B0F900001AF092FD41EC180B9FED84
:10083000DC0B53EC102B1AF0B5FD12D8DA48B0F9E6
:1008400000001AF084FD41EC180B9FEDD80B53EC1F
:10085000102B1AF0E1FE04D8D6480088B0F5167FB8
:1008600003DAD5480078022851D1D44800880028FE
:100870004DD10120D2490880D24908700020D249C8
:10088000087001200222CDE900200023B6EE000A04
:1008900064224FF47A710290CC4800F0CDFB062020
:1008A000CB4908700020CB490870C2490880002459
:1008B0001DE00020C84908559FEDC80A04EB44001C
:1008C000C74901EB800080ED000A9FEDC40A04EBEC
:1008D000440001EB800080ED010A9FEDC00A04EBAB
:1008E000440001EB800080ED020A601C84B2062CFB
:1008F000DFDB0A20BB490880012011F043FA012008
:1009000011F068FA0020B8490880AB490870AD487A
:10091000007801287ED19D480088B0F57A7F13D1F8
:100920009B48B0F900001AF012FD41EC180B9FED46
:10093000AF0B53EC102B1AF035FD05D89748008803
:1009400010B99948008818B1AA480078012817D131
:10095000A9480088401CA849088008460088142837
:1009600003DAA4480078012806D1002098490870CD
:10097000A2490880A249088000209E49087053E1DE
:1009800082480088B0F57A7F13D18148008880B909
:100990008248B0F900001AF0DAFC41EC180B9FED28
:1009A000830B53EC102B1AF037FE02D87E480088D8
:1009B00018B190480078022818D18F480088401C50
:1009C0008D49088008460088142803DA8948007891
:1009D000022807D101207E4908700020874908803D
:1009E000874908800020834908701DE16748008816
:1009F000B0F57A7F15D16648008890B96748B0F99C
:100A000000001AF0A4FC41EC180B9FED650B53ECB1
:100A1000102B00E00FE11AF0C5FC02D862480088F4
:100A200018B174480078032818D173480088401C16
:100A30007149088008460088142803DA6D48007858
:100A4000032807D102206249087000206B49088002
:100A50006B490880002067490870E5E04B48008832
:100A6000B0F57A7F13D14A48008880B94B48008896
:100A700068B94D48B0F900001AF069FC41EC180B58
:100A80009FED4A0B53EC102B1AF0C6FD03D95948C1
:100A90000078042818D158480088401C564908801E
:100AA00008460088142803DA52480078042807D141
:100AB00003204749087000205049088050490880A9
:100AC00000204C490870AFE030480088B0F57A7FCC
:100AD00013D12F48008880B93048008868B932485F
:100AE000B0F900001AF033FC41EC180B9FED2C0B11
:100AF00053EC102B1AF056FC03D93E480078052819
:100B000018D13D480088401C3B49088008460088B1
:100B1000142803DA37480078052807D104202C4927
:100B20000870002035490880354908800020314987
:100B3000087079E015480088B0F57A7F13D1144821
:100B4000B0F900001AF003FC41EC180B9FED110BFB
:100B500053EC102B1AF060FD05D21048008810B934
:100B60001148008818B123480078062855D122483A
:100B70000088401C2049088008460088142803DAB1
:100B80001C480078062844D105203BE020030020C3
:100B9000260300200000000000C062402403002063
:100BA00000000000008036C022030020000000008A
:100BB00000803640DA000020C80D002034030020F9
:100BC00008000020D2000020D0000020F00D0020FE
:100BD000D1000020D9000020D30000200000000038
:100BE0005C0E0020F4020020420300200000000000
:100BF00000C062C0C90D0020DC0000203C030020C2
:100C00003E0300200E49087000200E4908800E495E
:100C1000088000200D49087006E00D49088800EBA7
:100C2000D07149100A4A118009480088C82802DB9F
:100C300000200749088004B0BDEC028B10BD000005
:100C4000D10000203C0300203E030020C90D0020FD
:100C5000DC00002010B53B4890ED000A3A48D0ED8A
:100C6000000A30EE600A394880ED020A0CF02AF8DA
:100C7000374890ED000A3748D0ED000A30EE600AA0
:100C8000324880ED560A00F5A8700CF01BF8324887
:100C90000088002846D131480088B0F5FA7F04DC8E
:100CA0002E480088401C2D490880284890EDA90A4C
:100CB000B5EEC00AF1EE10FA08D028480088B0F569
:100CC000FA7F03DD26480078012805D1254890EDFC
:100CD000000A1E4880EDA90A224890ED000A1B4830
:100CE00080EDAA0A00F528700CF028FE174890ED58
:100CF000B40A80EDD30A1C48407B012821D11B484F
:100D0000007801281DD11A4890ED000AF0EE080A7B
:100D100020EE200A0D4880EDD30A9FED160A80EDE3
:100D2000A90A0EE09FED130A084880EDA90A0A48B7
:100D3000B0F9000000EE100AB8EEC00A034880EDDA
:100D4000D30A10BD480C002018010020BC18002058
:100D50004C0C00201C01002026030020560D002012
:100D6000470B0020500C0020BA440020190D002031
:100D7000D00B00200000000010B5FFF76BFF04F05F
:100D8000D9F810BD08207449086074490860744996
:100D900008607449086074490860744908607449BF
:100DA000086074490860744908600020CFE0734906
:100DB00001EB800191ED000A6749091D01EB8001FB
:100DC00081ED000A6D49243101EB800191ED000AAB
:100DD0006149283101EB800181ED000A674901EB8F
:100DE000800191ED000A5D49091D01EB800181ED53
:100DF000000A6249243101EB800191ED000A574954
:100E0000283101EB800181ED000A5C4901EB800192
:100E100091ED000A5249091D01EB800181ED000AA4
:100E20005649243101EB800191ED000A4C492831EB
:100E300001EB800181ED000A514901EB800191ED48
:100E4000000A4849091D01EB800181ED000A4C4967
:100E5000243101EB800191ED000A4249283101EB78
:100E6000800181ED000A464901EB800191ED000A05
:100E70003D49091D01EB800181ED000A4049243103
:100E800001EB800191ED000A3749283101EB800127
:100E900081ED000A3A4901EB800191ED000A3349E6
:100EA000091D01EB800181ED000A3549243101EB78
:100EB000800191ED000A2D49283101EB800181ED7F
:100EC000000A2F4901EB800191ED000A2849091D14
:100ED00001EB800181ED000A2949243101EB8001F9
:100EE00091ED000A2249283101EB800181ED000AD1
:100EF000234901EB800191ED000A1E49091D01EB18
:100F0000800181ED000A1E49243101EB800191ED41
:100F1000000A1849283101EB800181ED000A1849C7
:100F200001EB800191ED000A1349091D01EB8001DD
:100F300081ED000A1249243101EB800191ED000A94
:100F40000D49283101EB800181ED000A401C082881
:100F50007FF72DAF70470000781400200C1500209B
:100F6000A0150020BC12002050130020E413002024
:100F700034160020C81600205C1700205C020020F8
:100F80001402002010B509480068402102680120C1
:100F900090470648006801210268022090470348F4
:100FA0000068022102680846904710BD240800022C
:100FB00010B504462088012803DB2088401E2080CD
:100FC00005E0218A1B4BE0681B685A68904720881F
:100FD00010B9A07C01282CD12089401C20812089B7
:100FE00000EB80006188884201DB0020208160885E
:100FF00000EE100AB8EE400AD4ED010A60EE200AB5
:10100000208900EB800000EE100AB8EEC00AF4EE72
:10101000C00AF1EE10FA06DB218A064BE0681B6875
:101020009A68904705E0218A024BE0681B685A687D
:10103000904710BD24080002F0B505AC70CC052720
:10104000B1FBF7F70780428080ED010A0381C4609D
:1010500005828674F0BD000010B504464CB97E4888
:10106000FFF7A6FF7D48FFF7A3FF7D48FFF7A0FF2E
:10107000F1E0012C7ED17B48007888B97748FFF7F2
:1010800097FF754B198AD868774B1B685A68904749
:10109000734B198AD868744B1B685A689047DAE01A
:1010A00070480078012811D16C48FFF781FF6A4B26
:1010B000198AD8686C4B1B685A689047684B198A24
:1010C000D868694B1B685A689047C4E06548007847
:1010D000022811D16148FFF76BFF5F4B198AD8686E
:1010E000614B1B685A6890475D4B198AD8685E4B04
:1010F0001B685A689047AEE05A480078032811D11F
:101100005648FFF755FF544B198AD868564B1B6851
:101110005A689047524B198AD868534B1B685A68D3
:10112000904798E04F480078042811D14B48FFF7CA
:101130003FFF494B198AD8684B4B1B685A68904748
:10114000474B198AD868484B1B685A68904782E019
:1011500044480078052813D14048FFF729FF3E4B4B
:10116000198AD868404B1B685A6890473C4B198ACB
:10117000D86800E00EE03C4B1B685A6890476AE074
:101180003548FFF715FF3548FFF712FF3448FFF7E2
:101190000FFF60E0022C4AD13448007888B92F480C
:1011A000FFF706FF2C4B198AD8682F4B1B685A682B
:1011B00090472B4B198AD8682B4B1B685A6890476D
:1011C00049E02A480078012811D12448FFF7F0FEB1
:1011D000214B198AD868244B1B685A689047204BCA
:1011E000198AD868204B1B685A68904733E01F481B
:1011F0000078022811D11948FFF7DAFE164B198A38
:10120000D868194B1B685A689047154B198AD868DB
:10121000154B1B685A6890471DE00F48FFF7C8FE42
:101220000E48FFF7C5FE0E48FFF7C2FE13E0032C81
:1012300011D10D48006801214268022090470A48F8
:10124000006802214268084690470748006840212C
:1012500042680120904710BDDC0D0020F00D0020F9
:10126000040E0020D100002024080002E800002025
:1012700010B52748DFED270A9FED270A11F05EFE23
:101280002648DFED270A9FED240A11F057FE254876
:10129000DFED250A9FED200A11F050FE2348F3EE02
:1012A0000E0A9FED1D0A11F049FE2148F3EE040AD3
:1012B0009FED190A11F042FE1E48F2EE0E0A9FED54
:1012C000160A11F03BFE1C48F2EE040A9FED120ACA
:1012D00011F034FE1948F1EE040A9FED0F0A11F0E7
:1012E0002DFE1748F0EE000A9FED0B0A11F026FEC6
:1012F0001448F2EE040A9FED140A11F01FFEFFF7E6
:1013000041FD124A01210A2018F0FCFA10BD00002C
:10131000841000200000A042000048439C100020E0
:1013200000007042B410002000004C42CC1000209D
:10133000E4100020FC100020141100202C110020CB
:101340004411002034120020000048425C100020AC
:1013500046F65A11064A11600549503109680143A1
:10136000034A503211600121024A11707047000097
:10137000000401400080204270B507480068C0F3B7
:1013800002240548006800F0E06005012946204677
:1013900013F094FA70BD000008040140F0B52DED83
:1013A000028B83B001AB02AA0021032011F01CFFC5
:1013B00013F0F2FA0646029820B9304603B0BDECAD
:1013C000028BF0BD27480068C0F3090404F40070E4
:1013D00010B144F47E4004B20CB93046EEE7224826
:1013E00086420ED12148007828B1019890ED0F8AED
:1013F0000198456A13E0019890ED078A01984568C5
:101400000DE01A48007828B1019890ED0E8A0198F5
:10141000056A04E0019890ED068A0198056800EEDF
:10142000104AB8EEC00A68EE000AC5F5407000EE3A
:10143000100AB8EEC01AB7EE000A08EE010A80EEF4
:10144000801AB7EE000A70EE410A00EE106AB8EE9C
:10145000400A80EE201ABCEEC10A10EE107A38461F
:10146000ACE7000004040140006CDC02D88020429C
:1014700070B50748006800F007040548006800F4EC
:10148000E02005032946204613F018FA70BD00003D
:101490000804014070B506480068C0F3021504480E
:1014A000006800F0E0442146284613F007FA70BDBA
:1014B00008040140024A1160024A106070470000AF
:1014C000000000200400002010B504460021204642
:1014D00000F002F810BD00002DE9F04105460C4671
:1014E00046F65A102749086011F076FE00F0010810
:1014F000012011F061FE13F0A5FA06460CB101209F
:1015000000E00020074601201F4908701D480C30EC
:10151000006820F4E00030431A490C31086025B11E
:10152000012019492431087003E0002016492431B4
:101530000870012014492031087007E01FB1601EB7
:10154000041E00D106E00120104908701048007800
:101550000028F3D100BF3DB91EB101200A4908702F
:1015600002E000200849087001200A49087040463E
:1015700011F02AFE1FB114B90020BDE8F08101204E
:10158000FBE7000000040140C0812042048A2042A1
:10159000048920420080204270B503460C4615465F
:1015A00000204DE0461C31B246E000EB400604EB63
:1015B000C60606EB8106D6ED000A00EB400604EBFA
:1015C000C60606EB800696ED001A80EE810AB5EE9F
:1015D000C00AF1EE10FA2DD003EB8106D6ED000A19
:1015E00003EB800696ED001A40EE410A03EB8106FC
:1015F000C6ED000A0A461BE002EB420604EBC606F3
:1016000006EB8106D6ED000A02EB420604EBC606A5
:1016100006EB800696ED001A40EE410A02EB420608
:1016200004EBC60606EB8106C6ED000A561C32B274
:10163000062AE1DB4E1C31B20629B6DB461C30B26D
:101640000628AFDB052045E000EB400604EBC606AC
:1016500006EB8006D6ED000A03EB800696ED001A35
:10166000C1EE201A03EB8006C6ED001AF7EE000A61
:1016700000EB400604EBC60606EB8006C6ED000A4A
:10168000002123E000EB400604EBC60606EB8106D2
:10169000D6ED000AB0EE600A03EB8106D6ED000A33
:1016A00003EB800696ED001A40EE410A03EB81063B
:1016B000C6ED000ADFED100A00EB400604EBC6069B
:1016C00006EB8106C6ED000A4E1C31B28142D9DB21
:1016D000461E30B20028B7DA002009E003EB80068E
:1016E000D6ED000A05EB8006C6ED000A461C30B2B6
:1016F0000628F3DB70BD00000000000010B50246B4
:101700000B46002017E09FED0D0A02EB800484EDEC
:10171000000A00210BE09FED090A00EB400403EBF7
:10172000C40404EB810484ED000A4C1C21B2062998
:10173000F1DB441C20B20628E5DB10BD00000000F0
:10174000F0B586B004460D46F7EE001AB0EE611A09
:10175000002035E0C61C02EB8606D6ED000A03EB3E
:101760008006D6ED001A02EB800696ED002A31EED7
:10177000C20A60EEA01A21EE802AF0EE411A42EE73
:10178000401AB0EE611AF0EE001A60EEA11A61EE96
:10179000A01A61EE801A6E4606EB8006C6ED001AAE
:1017A000F8EE001A60EEA11A61EE801A61EE801A5E
:1017B000C61C6F4607EB8606C6ED001A461C30B203
:1017C0000328C7DB002032E004EB8006D6ED001AC8
:1017D0006E4606EB800696ED002A42EE011A04EBF7
:1017E0008006C6ED001A00211DE000EB400605EB67
:1017F000C60606EB8106D6ED001A6E4606EB80069D
:1018000096ED002A6E4606EB8106D6ED002A42EEE2
:10181000221A00EB400605EBC60606EB8106C6ED74
:10182000001A4E1C31B20629DFDB461C30B20628F6
:10183000CADB06B0F0BD00002DE9F0432DED028BB0
:10184000B9B007460E4614464FF000089FED9F0AB8
:10185000B0EE408A9FED9E0AF0EE408A002036905E
:1018600037903890182130A8FEF793FD18212AA848
:10187000FEF78FFD182124A8FEF78BFD9021684606
:10188000FEF787FD4FF001099FED920A8DED320AB8
:101890008DED310A8DED300A9FED8F0A8DED350A01
:1018A0008DED340A8DED330A7FE008F101000FFA67
:1018B00080F8694624A8FFF721FF00251FE005EB0B
:1018C000450007EB800090ED000A8DED360A05EB30
:1018D000450007EB800090ED010A8DED370A05EB1E
:1018E000450007EB800090ED020A8DED380A36AB1B
:1018F00030AA694624A8FFF723FF681C05B2062D0D
:10190000DDDB2AAA694624A8FFF746FE9DED2D0AD5
:1019100020EE000ADDED330A20EEA01AC0EE010A27
:101920009DED2A0A20EE000A30EE000A9DED2B1AEA
:10193000DDED2B1A01EE210A9DED2C1ADDED2C1A9E
:1019400001EE210A30EE800ADDED2E0A60EEA00ADB
:101950009DED341A21EE011AC0EE811A70EE210AB3
:101960009DED2F0A20EE000A9DED351A21EE011A99
:10197000C0EE011A30EEA10AF0EE408A002512E016
:1019800030A800EB850090ED000A2AA800EB850046
:10199000D0ED000A30EE600A30A800EB850080ED43
:1019A000000A681C05B2062DEADBB8F1140F05DA4F
:1019B000F4EEC88AF1EE10FA3FF777AF9DED330AE7
:1019C000DFED460A20EE200A84ED000A9DED340A80
:1019D000DFED420A20EE200A84ED010A9DED350A72
:1019E000DFED3E0A20EE200A84ED020A9DED300A6A
:1019F000D4ED000A20EE200A86ED000A9DED310AA2
:101A0000D4ED010A20EE200A86ED010A9DED320A8E
:101A1000D4ED020A20EE200A86ED020A94ED000AB7
:101A2000F7EE000A30EE600AB0EEC00AF6EE000AE9
:101A3000B4EEE00AF1EE10FA1DDC94ED010AF7EEC7
:101A4000000A30EE600AB0EEC00AF6EE000AB4EE0C
:101A5000E00AF1EE10FA0EDC94ED020AF7EE000A4D
:101A600030EE600AB0EEC00AF6EE000AB4EEE00A0C
:101A7000F1EE10FA01DD4FF0000996ED000AB0EE2C
:101A8000C00AF1EE040AB4EEE00AF1EE10FA15DC39
:101A900096ED010AB0EEC00AF1EE040AB4EEE00AD7
:101AA000F1EE10FA0ADC96ED020AB0EEC00AF1EE91
:101AB000040AB4EEE00AF1EE10FA01DD4FF000097D
:101AC000484639B0BDEC028BBDE8F0835F708930C9
:101AD0000000C842000000007FD6D03D0AE81C414B
:101AE00010B509480078401C07490870084600787E
:101AF000042804DB00F030FD00200349087012F0D8
:101B000080F800F055FA10BD580D0020002009495A
:101B10000978012901D140F001000749097801291C
:101B200001D140F0020005490978012901D140F0B6
:101B300004007047F6020020D2000020E1000020DF
:101B400010B50146002001EBC1026E4B13F82220B4
:101B500001EBC1036B4C04EB83035B781A4001EB90
:101B6000C10304EB83039B781A4001EBC10304EB30
:101B70008303DB781A4001EBC10304EB83031B7979
:101B80001A4001EBC10304EB83035B791A4001EBBC
:101B9000C10304EB83039B791A4001EBC10304EBFF
:101BA0008303DB791A4001EBC10304EB83031B7A47
:101BB0001A4001EBC10304EB83035B7A1A4001EB8B
:101BC000C10304EB83039B7A1A4001EBC10304EBCE
:101BD0008303DB7A1A4001EBC10304EB83031B7B15
:101BE0001A4001EBC10304EB83035B7B1A4001EB5A
:101BF000C10304EB83039B7B1A4001EBC10304EB9D
:101C00008303DB7B1A4001EBC10304EB83031B7CE2
:101C10001A4001EBC10304EB83035B7C1A4001EB28
:101C2000C10304EB83039B7C1A4001EBC10304EB6B
:101C30008303DB7C1A4001EBC10304EB83031B7DB0
:101C40001A4001EBC10304EB83035B7D1A4001EBF7
:101C5000C10304EB83039B7D1A4001EBC10304EB3A
:101C60008303DB7D1A4001EBC10304EB83031B7E7E
:101C70001A4001EBC10304EB83035B7E1A4001EBC6
:101C8000C10304EB83039B7E1A4001EBC10304EB09
:101C90008303DB7E1A4001EBC10304EB83031B7F4C
:101CA0001A4001EBC10304EB83035B7F1A4001EB95
:101CB000C10304EB83039B7F1A4001EBC10304EBD8
:101CC0008303DB7F1A4001EBC10304EB830393F82A
:101CD00020301A4001EBC10304EB830393F8213059
:101CE0001A4001EBC10304EB830393F822301A403E
:101CF00001EBC10304EB830393F823301A4002B1D4
:101D0000012010BD1C0F002010B503F009FC0A20B3
:101D100001F010F8242241210E2011F0E1F9C02237
:101D200042210E2011F0DCF90348F3EE020A9FED88
:101D3000030A11F003F910BD1C42002000002042EC
:101D40001CB5044632480088401C314908800846CA
:101D50000088012805D101220A210E2011F0C0F9C6
:101D600054E02B480088062850D103210E2011F0A2
:101D70009DF98DF8000004210E2011F097F98DF8DF
:101D8000010005210E2011F091F98DF802000621C5
:101D90000E2011F08BF98DF8030007210E2011F0B1
:101DA00085F98DF8040008210E2011F07FF98DF8D7
:101DB00005009DF800009DF8011040EA012000B2E6
:101DC00000EE100AB8EEC00A84ED000A9DF8020089
:101DD0009DF8031040EA012000B2404200EE100AD4
:101DE000B8EEC00A84ED010A9DF804009DF80510C4
:101DF00040EA012000B200EE100AB8EEC00A84EDFD
:101E0000020A00200249088001201CBD0020FCE7D6
:101E1000BA0D0020F8B5642015F0CAFC4FF4A17685
:101E2000AA2010F00DFEAB2010F00AFE3F49087802
:101E300010F006FE3D49487810F002FE3B498878D4
:101E400010F0FEFD3949C87810F0FAFD37490978DD
:101E5000364A52785140354A92785140334AD278C6
:101E600081EA020010F0ECFD00254FF6FF703049CA
:101E700008801CE009E02E480088401E2C4908809C
:101E80000846008808B90020F8BD2A480068416C5F
:101E90002948884700F001000028ECD02548006858
:101EA000016C2548884729466D1C0DF80100032D5B
:101EB000E0DB002432E0BB2010F0C2FDDC2010F09B
:101EC000BFFD1E49085D10F0BBFD1C4A611C505C43
:101ED00010F0B6FD1949095D81F0DC01174B621C59
:101EE0009A5C81EA020010F0ABFD002512E000BF11
:101EF00010480068416C1048884700F00100002835
:101F0000F6D00C480068016C0B48884729466D1CC8
:101F10000DF80100032DEADBA01C84B2B442CADB39
:101F2000DD2010F08DFD0120AEE70000BCE40100D3
:101F3000740900206008000200100040C0E40100A5
:101F4000F0EE400AC0ED020A91ED030A90ED021A8C
:101F500020EE010A91ED041AD0ED011A01EE210ADA
:101F600091ED051AD0ED001A01EE210A91ED011A4A
:101F7000D0ED041A01EE610A91ED021AD0ED031AB8
:101F800001EE610A80ED050A90ED010A80ED000A7C
:101F900090ED020A80ED010A90ED040A80ED030A3B
:101FA00090ED050A80ED040A90ED050A70470000E7
:101FB0003EB511F0A7FC16F0D9FEFE4800880128B6
:101FC0007DD1FD48007801287AD1FC48B0F90000A5
:101FD000B0F57A7F15DCFA48B0F90000B0F57A7FE9
:101FE0000FDCF848B0F90000B0F57A7F09DCF6485C
:101FF000B0F90000B0F57A7F03DC7D20F34908805A
:1020000013E0F348007880B90020EA4908804021B5
:1020100001220346B6EE000ACDE900210290C82253
:1020200040F6B831EB48FFF707F8EB480088401C52
:10203000E94908800846008802280BDBE34800884D
:10204000012804DBE1480088401EE04908800020A8
:10205000E1490880DD480088C0F17D0000EB4001C7
:10206000C1EBC0107D2190FBF1F000F57A7000B259
:10207000DA490880D5480088C0F17D0000EB4001B6
:10208000C1EBC0107D2190FBF1F000F57A7000B239
:10209000D3490880CD480088C0F17D0000EB4001A5
:1020A000C1EBC0107D2190FBF1F000F57A7000B219
:1020B000CC490880C5480088C0F17D0001E0DDE121
:1020C00012E000EB4001C1EBC0107D2190FBF1F06C
:1020D00000F57A7000B2C449088011F025FA0AF0C0
:1020E000F5FA0AF00DFADBE1C048007801287DD14D
:1020F000BF48008840F21A41884278DBBD4800881A
:1021000000EE100AB8EE400AF7EE000A20EE200AB0
:10211000B948D0ED8A0ABFEE001A01EE200AD0EDD0
:10212000360AB7EE001A01EE200AD0EDDE0ABFEE45
:10213000001A01EE200ABDEEC00A10EE100A00B22D
:10214000A6490880AB48008800EE100AB8EE400AA5
:10215000F7EE000A20EE200AA748D0ED8A0AB7EE73
:10216000001A01EE200AD0ED360ABFEE001A01EE89
:10217000200AD0EDDE0ABFEE001A01EE200ABDEE05
:10218000C00A10EE100A00B29549088099480088EC
:1021900000EE100AB8EE400AF7EE000A20EE200A20
:1021A0009548D0ED8A0AB7EE001A01EE200AD0ED6C
:1021B000360AB7EE001A01EE200AD0EDDE0AB7EEBD
:1021C000001A01EE200ABDEEC00A10EE100A00B29D
:1021D000844908808748008800EE100AB8EE400A5B
:1021E000F7EE000A20EE200A834801E05FE019E0E4
:1021F000D0ED8A0ABFEE001A01EE200AD0ED360AB1
:10220000BFEE001A01EE200AD0EDDE0AB7EE001A8A
:1022100001EE200ABDEEC00A10EE100A00B27249AB
:10222000088015E07348008800B26C490880714846
:10223000008800B26A4908806E48008800B2694987
:1022400008806C48008800B26749088011F06CF97A
:102250006248B0F9002040F6C41140F2654011F028
:1022600043FF5E4908805E48B0F9002040F6C41183
:1022700040F2654011F038FF594908805948B0F9DB
:10228000002040F6C41140F2654011F02DFF554981
:1022900008805548B0F9002040F6C41140F265406E
:1022A00011F022FF5049088011F05CFCF8E04F4823
:1022B00000780228FAD14F48008800EE100AB8EEE4
:1022C000400AF7EE000A20EE200A4B48D0ED8A0AB9
:1022D000BFEE001A01EE200AD0ED360AB7EE001A62
:1022E00001EE200AD0EDDE0ABFEE001A01EE200A50
:1022F000BDEEC00A10EE100A00B2384908803D4811
:10230000008800EE100AB8EE400AF7EE000A20EE50
:10231000200A3948D0ED8A0AB7EE001A01EE200AE9
:10232000D0ED360ABFEE001A01EE200AD0EDDE0A2B
:10233000BFEE001A01EE200ABDEEC00A10EE100A30
:1023400000B2274908802B48008800EE100AB8EE3A
:10235000400AF7EE000A20EE200A2748D0ED8A0A4C
:10236000B7EE001A01EE200AD0ED360AB7EE001AD9
:1023700001EE200AD0EDDE0AB7EE001A01EE200AC7
:10238000BDEEC00A10EE100A00B2164908801948C6
:10239000008800EE100AB8EE400AF7EE000A20EEC0
:1023A000200A1548D0ED8A0ABFEE001A01EE200A75
:1023B00024E0000034030020470B0020000D002023
:1023C000020D0020040D0020060D0020540D0020F9
:1023D000460B0020DC0D0020520D0020F80C0020E0
:1023E000FA0C0020FC0C0020FE0C0020080D002040
:1023F000440D0020500D0020BC180020D0ED360AFE
:10240000BFEE001A01EE200AD0EDDE0AB7EE001A88
:1024100001EE200ABDEEC00A10EE100A00B24649D5
:1024200008804648B0F9002040F6C41140F26540EB
:1024300011F05AFE414908804148B0F9002040F6A9
:10244000C41140F2654011F04FFE3D4908803D48FF
:10245000B0F9002040F6C41140F2654011F044FE8E
:10246000384908803448B0F9002040F6C41140F2E1
:10247000654011F039FE3049088011E04FF47A7060
:102480002E4908802E4908802E4908802A49088054
:1024900011F04AF80AF01AF90AF032F811F062FB6A
:1024A0002648B0F90000284908802548B0F9000006
:1024B000264908802348B0F90000254908801E48B5
:1024C000B0F90000234908801C48B0F9002040F60C
:1024D000C411002011F008FE184908801848B0F90E
:1024E000002040F6C411002011F0FEFD14490880C0
:1024F0001448B0F9002040F6C411002011F0F4FD9A
:10250000104908800C48B0F9002040F6C4110020A2
:1025100011F0EAFD084908800C462488A3B2094C52
:102520002488A2B2064C2488A1B2044C2488A0B20C
:102530000BF096FE3EBD0000FE0C0020F80C0020C3
:10254000FA0C0020FC0C0020000D0020020D0020E1
:10255000040D0020060D002010B5FE480078FE494D
:102560000870FE480078FE490870FE480078FE4971
:102570000870FE480078FE490870FE4890ED100A89
:10258000D0ED130A70EE600AFB48008900EE100AD5
:10259000B8EE400AF4EEC00AF1EE10FA03D80220B9
:1025A000EC49087014E0F34890ED110AD0ED130ADD
:1025B00070EE200AF048008900EE100AB8EE400ADA
:1025C000F4EEC00AF1EE10FA02DB0120E1490870D6
:1025D000E84890ED140AD0ED170A70EE600AE6485C
:1025E000408900EE100AB8EE400AF4EEC00AF1EE9F
:1025F00010FA03D80220D949087014E0DD4890EDA4
:10260000150AD0ED170A70EE200ADB48408900EE6B
:10261000100AB8EE400AF4EEC00AF1EE10FA02DB3E
:102620000120CE490870D34890ED180AD0ED1B0A5E
:1026300070EE600AD048808900EE100AB8EE400AB9
:10264000F4EEC00AF1EE10FA03D80220C549087072
:1026500014E0C84890ED1A0AD0ED1B0A70EE200A6B
:10266000C548808900EE100AB8EE400AF4EEC00AB0
:10267000F1EE10FA02DB0120BA490870BD4890ED76
:102680001A0AD0ED1B0A70EE600ABB48808900EE82
:10269000100AB8EE400AF4EEC00AF1EE10FA15D8AE
:1026A000B44890ED1A0AD0ED1B0A70EE200AB24829
:1026B000808900EE100AB8EE400AF4EEC00AF1EE8E
:1026C00010FA03DB0120AD49087004E00020AB499B
:1026D000087008F05FFCA74890ED1C0AD0ED1F0AB7
:1026E00070EE600AA448C08900EE100AB8EE400AF5
:1026F000F4EEC00AF1EE10FA03D802209B490870EC
:1027000018E09C4890ED1D0AD0ED1F0A70EE200ADB
:102710009948C08900EE100AB8EE400AF4EEC00AEB
:10272000F1EE10FA06DB01209049087009F0CEFFA7
:1027300009F0E6FE92480088012804DB90480088F2
:10274000401E8F4908808E48008810B900208D49AE
:1027500008708748007885490978884227D08348DF
:102760000078012823D14FF41670854908808548E8
:102770000078401C8349087008460078032816DB5F
:1027800001208149087000207E4908707F48D0ED03
:10279000000A7F48008800EE100AB8EE400A30EECA
:1027A000800A7C4880EDFD0A00207B49088076483D
:1027B000007801282AD1B7EE000A784880ED270A70
:1027C0009FED770A80ED280A9FED750AA0F55270FB
:1027D00080ED270A9FED720A80ED280AB0EE000A0C
:1027E000A83880ED270AB7EE000A80ED280A69486C
:1027F00090EDFD0A6548D0ED000AB4EEE00AF1EE76
:1028000010FA1FD80020604908701BE0B7EE000ADC
:10281000624880ED270AB7EE000A80ED280AB7EE7D
:10282000000AA0F5527080ED270AB7EE000A80ED8D
:10283000280AB7EE000AA83880ED270AB7EE000A8A
:1028400080ED280A5448008801280DD110F0BEFF01
:102850005449087008460078022803D100204E49E8
:10286000088001E010F060FE3E4800783E4909789B
:1028700088420BD03B480078012801D116F0B2F90C
:10288000424890ED000A434880EDFD0A3148007847
:102890003149097888420CD02E480078022802D1AC
:1028A0000120414908702B480078012801D13E4998
:1028B00008702A4800782A490978884212D02748A7
:1028C0000078022804D13849087000203749087080
:1028D00022480078012805D10220334908700120E0
:1028E0003249087030480078012811D11948007821
:1028F000022809D12E4800882E490880234890EDEF
:10290000000A244880EDFD0A00202749087075E080
:1029100025480078022871D11048007802285CD13F
:1029200022480078A0B901F013FF88B1174890ED54
:10293000020A214880ED010A144890ED010A1F485F
:1029400080ED010A00F5FC700BF0C8F91A4837E079
:1029500051E00000080D0020090D00200A0D0020A4
:102960000B0D00200C0D00200D0D00200E0D002081
:102970000F0D0020B80F0020A2260020190D002006
:10298000120D0020110D0020100D002068270020DE
:102990002A010020BC180020400300209C200020B9
:1029A0009A99993F180B0020140D0020180D002053
:1029B00020030020160D00204C1F0020FC1D0020CD
:1029C0000BF08CF92B480BF089F92A48A8380BF04A
:1029D00085F90120284908700DE028480BF07EF9A0
:1029E0002448A8300BF07AF922480BF077F92148F7
:1029F000A8380BF073F900202149087021480078AD
:102A0000022836D101F0A4FE10B31B48007880BB29
:102A10001D4890ED020A1748A83080ED010A1A48B7
:102A200090ED010A1348A83880ED010A13480BF015
:102A300055F91048A8300BF051F90E480BF04EF93B
:102A40000C48A8380BF04AF901200B49087010E037
:102A500000200949087009480BF040F90548A830E2
:102A60000BF03CF903480BF039F90248A8380BF099
:102A700035F910BDA41E0020180D0020F41F002001
:102A8000140D00200A0D00206827002010B52DED40
:102A9000028B0021084603F092FC59A200211E205F
:102AA00003F0ACFB5948B0F90000401C00EE100ADE
:102AB000B8EEC00A0021642018F030F8012100208F
:102AC00003F07DFC52A20121002003F097FB524845
:102AD00000680A21B0FBF1F201FB120000EE100ABF
:102AE000B8EE400AB0EE408A0121282018F016F80E
:102AF0004A4800680A21B0FBF1F201FB120000EE27
:102B0000100AB8EE400AB0EE408A0121502018F0B9
:102B100005F80221002003F052FC41A2022100200E
:102B200003F06CFB3C4840680A21B0FBF1F201FB6A
:102B3000120000EE100AB8EE400AB0EE408A022100
:102B4000282017F0EBFF354840680A21B0FBF1F26E
:102B500001FB120000EE100AB8EE400AB0EE408A07
:102B60000221502017F0DAFF0321002003F027FC98
:102B70002DA20321002003F041FB2748D0ED020ADB
:102B8000F8EE600AB0EE600A0321282017F0C6FFB5
:102B9000224880680A21B0FBF1F201FB120000EE2E
:102BA000100AB8EE400AB0EE408A0321502017F018
:102BB000B5FF0421002003F002FC1DA20421002027
:102BC00003F01CFB0521002003F0F9FB1EA20521E8
:102BD000002003F013FB0621002003F0F0FB20A2ED
:102BE0000621002003F00AFB0721002003F0E7FB89
:102BF00020A20721002003F001FBBDEC028B10BDD9
:102C000041637469766174696F6E0000F40200209C
:102C10004944313A00000000A4420020B0420020A4
:102C20004944323A000000004944333A00000000B1
:102C3000506C656173652074616B652070686F749A
:102C40006F206F6600000000746865204F4C45449B
:102C500020616E6420636F6E746163740000000015
:102C600020205151203A3331333833373231363521
:102C700000000000202054454C3A313538373137B8
:102C800037383531350000002DE9F04316461F4630
:102C9000079D00F03F00DFF89880D8F8083003EB7C
:102CA0000018D8F8088043F6F77928EA090400F0FC
:102CB0000808B8F1000F05D0042901D0062901D178
:102CC00041F00101A5F1010841EA081848EA0404AD
:102CD00004F04062B2F1406F05D0920EA5F10108F8
:102CE00008FA02FC664403EB0018C8F8006004F020
:102CF0004042B2F1404F10D0042901D0062906D13C
:102D000040F0080803EB081808F10C0705E0920FE3
:102D1000A5F1010808FA02FC674403EB0018C8F8A3
:102D2000047003EB0018C8F80840BDE8F083000009
:102D300000F0004010B50446204614F028FD10BDF8
:102D40002DE9F04105460C462146284610F094F93D
:102D50000646601CC1B2284610F08EF9074607EB04
:102D6000062000B2BDE8F08170B50026002414E012
:102D70002146002003F0B8FA00250AE03146761C0F
:102D80000A4A505C03F0F2FA0220FFF7D3FF681CF6
:102D9000C5B2802DF2DB601CC4B2082CE8DB4FF416
:102DA000FA70FFF7C7FF03F0E9F970BDF4D1010035
:102DB00010B5044CA388A288A188A0880BF050FA13
:102DC00010BD0000A226002000B52DED028B83B0BF
:102DD00048480088B0F57A7F2ED14748B0F9000006
:102DE00018F0B5FA41EC180B9FED440B53EC102B87
:102DF00018F012FC20D84348B0F9000018F0A7FAE8
:102E000041EC180B9FED400B53EC102B18F004FC19
:102E100012D83F48B0F9000018F099FA41EC180BAD
:102E20009FED3C0B53EC102B18F0BCFA04D83B4838
:102E30000088401C394908802E480088B0F57A7F08
:102E400054D12D48B0F9000018F081FA41EC180B6C
:102E50009FED2A0B53EC102B18F0DEFB46D82948C7
:102E6000B0F9000018F073FA41EC180B9FED260B37
:102E700053EC102B18F0D0FB38D82548B0F90000DF
:102E800018F065FA41EC180B9FED220B53EC102B58
:102E900018F088FA2AD821480088B0F57A7F25DD15
:102EA0001F48008810BBB7EE000A1E4880ED000ADC
:102EB00000201A4908801C4908801C49194890EDD7
:102EC000000A542011F036FC01200222CDE9002036
:102ED00000239FED170A4FF4FA7241F288310290F5
:102EE0001448FEF7A9F80E201349088003B0BDEC82
:102EF000028B00BD200300202603002000000000FC
:102F000000C0624024030020000000000080364022
:102F10002203002000000000008036C012010020C3
:102F2000340300201401002042030020F03E002062
:102F3000CDCC4C3EF00D0020F40200200BF054F9F3
:102F400002F01CFD08F0B0F810F0AEFA08F03EF800
:102F500025499FED260A542011F0ECFB42E0FFF7D3
:102F600027FF0021084603F02AFA0121002003F080
:102F700026FA1FA20021084603F072F90221002060
:102F800003F01DFA0321002003F019FA1CA202210C
:102F9000002003F065F90421002003F010FA052158
:102FA000002003F00CFA1AA20421002003F058F9C3
:102FB0001AA20421502003F021F91A48808800EE5B
:102FC000900AF8EE600AB0EE600A0521502017F072
:102FD000A5FD0621002003F0F2F913A2062100202E
:102FE00003F00CF9BBE70000F03E002000000000F9
:102FF000506C65617365204D6F7665205468720072
:10300000446F776E205768656E204553430000007B
:103010004265657020426565700000005468723A30
:1030200000000000A22600205265706F77657220B4
:103030005768656E205365742055700070B50D4853
:103040000068416C0C488847044604F0010048B110
:1030500008480068016C0848884705461C22074953
:103060000EF0C4FE034800682146C26B0248904738
:1030700070BD0000600800020010004018360020FB
:1030800070B50E480068416C0D488847044604F04E
:10309000010058B109480068016C09488847054695
:1030A00008480288084928460EF0A0FE0348006838
:1030B0002146C26B0248904770BD000060080002C4
:1030C000001400404E0A0020E636002070B50D487E
:1030D0000068416C0C488847044604F0010048B180
:1030E00008480068016C084888470546284604F0EF
:1030F000A1FE00BF034800682146C26B024890470A
:1031000070BD0000600800020018004070B50D4856
:103110000068416C0C488847044604F0010048B13F
:1031200008480068016C0848884705461822074986
:103130000EF05CFE034800682146C26B02489047CF
:1031400070BD000060080002001C004082380020B2
:1031500010B50E480068D0F894100D488847044612
:103160000A4800682146D0F88C200948904704F0AE
:10317000010048B105480068416E05488847054987
:10318000087001200449087010BD000028080002E2
:10319000002400400A0300200903002010B52DED93
:1031A0000C8B84B00020019002900390EF49A1F1B4
:1031B0000C0003F099FCEE4890ED000ADFEDED0AFB
:1031C00060EE200A9FEDEC1A80EE810AEB48D0ED0C
:1031D000000AE6480C3890ED031A10EE810AE84820
:1031E00080ED000AE24890ED010ADFEDE20A60EEB0
:1031F000200A9FEDE11A80EE810AE048D0ED010A35
:10320000DA480C3890ED041A10EE810ADC4880EDA3
:10321000010AD74890ED020ADFEDD60A60EE200AD7
:103220009FEDD51A80EE810AD448D0ED020ACF482E
:103230000C3890ED051A10EE810AD14880ED020A93
:1032400090ED000AF0EE408A90ED010AB0EE409A4F
:1032500090ED020AB0EE408A69EE090A48EE080ACB
:10326000B0EE600A14F09CFD20EE280A10EE104A21
:10327000204618F0C9FB41EC1C0BB0EE4C0AF0EEF6
:103280006C0A11F095FCB0EE40BAF0EE60BA9FED1A
:10329000BD0B53EC102B51EC1B0B18F0BFF841EC9D
:1032A0001A0B17F0B1FDB949086068EEA80A48EE9C
:1032B000080AB0EE600A14F073FD20EE090A10EE61
:1032C000104A204618F0A0FB41EC1C0BB0EE4C0A53
:1032D000F0EE6C0A11F06CFCB0EE40BAF0EE60BAA1
:1032E0009FEDAB0B53EC102B51EC1B0B18F096F829
:1032F00041EC1A0B17F088FDA7490860084690EDCD
:10330000000ADFEDA60A20EE200A10EE101A084689
:1033100018F07AFB41EC1B0BB0EE4B0AF0EE6B0A97
:1033200013F012F9B0EE40AAF0EE60AA51EC1A0BBD
:1033300017F06AFD00EE100A994880ED000A9648E1
:1033400090ED000ADFED950A20EE200A10EE101A2B
:10335000084618F059FB41EC1B0BB0EE4B0AF0EE9F
:103360006B0A11F089FEB0EE40AAF0EE60AA51ECB3
:103370001A0B17F049FD00EE100A8A4880ED000A8A
:10338000824890ED000ADFED850A20EE200A10EE5B
:10339000101A084618F038FB41EC1B0BB0EE4B0A34
:1033A000F0EE6B0A13F0D0F8B0EE40AAF0EE60AA8F
:1033B00051EC1A0B17F028FD00EE100A7A4880ED48
:1033C000000A724890ED000ADFED740A20EE200A30
:1033D00010EE101A084618F017FB41EC1B0BB0EE6C
:1033E0004B0AF0EE6B0A11F047FEB0EE40AAF0EE89
:1033F00060AA51EC1A0B17F007FD00EE100A6B489B
:1034000080ED000A08E0052014F0D2F957480C308E
:1034100002F0B2F966490870654800780028F2D0D9
:1034200052480C3890ED060A6248D0ED000A30EEA2
:10343000600A8DED010A4D480C3890ED070A5D4891
:10344000D0ED010A30EE600A8DED020A47480C38D3
:1034500090ED080A5748D0ED020A30EE600A8DED73
:10346000030A9DED010A5148D0ED000A20EE200A22
:10347000DDED030A4C4890ED001A00EE810A4E483B
:1034800080ED000A9DED010A4548D0ED000A20EECE
:10349000200A4548D0ED000A20EE200ADDED020AA0
:1034A000404890ED001A00EE810ADDED030A3C4829
:1034B00090ED001A60EE810A3C4890ED001A00EE93
:1034C000C10A3D4880ED010A90ED010A10EE101A84
:1034D000084618F099FA41EC1C0B374890ED000AA9
:1034E00010EE101A084618F08FFA41EC1D0BB0EEE2
:1034F0004C1AF0EE6C1AB0EE4D0AF0EE6D0A11F0B7
:10350000C3FCB0EE40BAF0EE60BA9FED2C0B53EC6A
:10351000102B51EC1B0B17F081FF41EC1A0B17F02D
:1035200073FC28490860194890ED000ADFED1B0A7A
:1035300020EE200A244880ED000A174890ED000A8A
:10354000DFED160A20EE200A204880ED000A08462A
:1035500090ED000ADFED110A20EE200A1C4880EDF4
:10356000000A04B0BDEC0C8B10BD00009C3500209F
:1035700014450020000000450AE81C41740C00209E
:10358000684500206666666666A64CC0640C00202E
:103590006666666666A64C40600C002035FA8E3C76
:1035A000880C0020940C00208C0C0020980C00202B
:1035B000A00C002010420020CC0800200000006079
:1035C000E3A54C40680C0020A80C0020A40C0020AF
:1035D000AC0C002000B599B000201290139014900C
:1035E000FE4890ED000ADFEDFE0A60EE200A9FED36
:1035F000FD1A80EE810AFC48D0ED000AFB4890EDF0
:10360000031A10EE810AFA4880ED000AF34890EDA3
:10361000010ADFEDF30A60EE200A9FEDF21A80EE58
:10362000810AF148D0ED010AF04890ED041A10EE3D
:10363000810AEF4880ED010AE84890ED020ADFEDCB
:10364000E80A60EE200A9FEDE71A80EE810AE6485C
:10365000D0ED020AE54890ED051A10EE810AE44823
:1036600080ED020A90ED000A8DED170A90ED010A37
:103670008DED160A90ED020A8DED150A9DED160AE4
:1036800020EE000ADDED150A00EEA00A8DED0A0A13
:103690009DED0A0A14F084FBDDED170A20EE200AE6
:1036A0008DED0B0A0B9818F0AFF9CDE90C019DEDEB
:1036B0000C0B11F07DFA8DED0E0B9FEDCE0B53EC44
:1036C000102B9DED0E0B51EC100B17F0A7FECDE962
:1036D00010019DED100B51EC100B17F095FBC74935
:1036E00008609DED170A20EE000ADDED150A00EED8
:1036F000A00A8DED0A0A9DED0A0A14F051FBDDEDDA
:10370000160A20EE200A8DED0B0A0B9818F07CF9B2
:10371000CDE90C019DED0C0B11F04AFA8DED0E0B6D
:103720009FEDB70B53EC102B9DED0E0B51EC100BD6
:1037300017F074FECDE910019DED100B51EC100B4C
:1037400017F062FBB0490860084690ED000ADFED13
:10375000AF0A20EE200A8DED0D0A0D9818F054F9ED
:10376000CDE90E019DED0E0B12F0EEFE8DED100B6E
:103770009DED100B51EC100B17F046FB00EE100AFC
:10378000A34880ED000AA04890ED000ADFED9F0AF3
:1037900020EE200A8DED0D0A0D9818F035F9CDE9CF
:1037A0000E019DED0E0B11F067FC8DED100B9DEDE4
:1037B000100B51EC100B17F027FB00EE100A954888
:1037C00080ED000A8D4890ED000ADFED900A20EEB2
:1037D000200A8DED0D0A0D9818F016F9CDE90E01AD
:1037E0009DED0E0B12F0B0FE8DED100B9DED100B4C
:1037F00051EC100B17F008FB00EE100A864880ED24
:10380000000A7E48D0ED000A9FED800A20EE800A73
:103810008DED0D0A0D9818F0F7F8CDE90E019DED2C
:103820000E0B11F029FC8DED100B9DED100B51ECE2
:10383000100B17F0E9FA00EE100A784880ED000A44
:103840006A4890ED060A7648D0ED000A30EE600A2C
:103850008DED120A654890ED070A7148D0ED010A16
:1038600030EE600A8DED130A604890ED080A6C484E
:10387000D0ED020A30EE600A8DED140ADDED120A79
:10388000664890ED000A20EE800ADDED140A6248D9
:1038900090ED001A00EE810A624880ED000A9DED6D
:1038A000120A5B48D0ED000A20EE200A5A48D0EDFB
:1038B000000A20EE200A9DED131A5648D0ED000AAA
:1038C00001EE200ADDED140A514890ED001A60EE79
:1038D000810A524890ED001A00EEC10A514880ED6D
:1038E000010A4068099018F08FF8CDE90C014D48A5
:1038F0000068099018F088F8CDE90A019DED0C1BCD
:103900009DED0A0B11F0C0FA8DED0E0B9FED460BED
:1039100053EC102B9DED0E0B51EC100B17F07EFDB0
:10392000CDE910019DED100B51EC100B17F06CFA66
:103930003F490860314890ED000ADFED340A20EE7F
:10394000200A3C4880ED000A2F4890ED000ADFED88
:103950002F0A20EE200A384880ED000A084690ED34
:10396000000ADFED2A0A20EE200A344880ED000A22
:103970003148D0ED000AB0EE001A80EE810A8DEDDC
:10398000050A059818F040F8CDE906019DED060BF3
:1039900012F0DAFD8DED0A0B2648D0ED000AB0EEEC
:1039A000001A80EE810A8DED010A019818F02CF8BA
:1039B000CDE902019DED020B12F0C6FD8DED060B67
:1039C0001E4890ED001AF0EE000A81EE200A8DEDFF
:1039D000010A019818F018F832E0000014450020A0
:1039E000000000450AE81C41740C002090350020BE
:1039F000684500206666666666A64CC0640C0020BA
:103A00006666666666A64C40600C002035FA8E3C01
:103A1000880C0020940C00208C0C0020980C0020B6
:103A200010420020CC08002000000060E3A54C40BC
:103A3000680C0020A80C0020A40C0020AC0C002076
:103A4000CDE902019DED020B12F07EFD8DED040B20
:103A50009DED060B53EC102B9DED040B51EC100B60
:103A600017F0DCFCCDE908019DED0A0B53EC102B9F
:103A70009DED080B51EC100B17F0D0FCCDE90E01B9
:103A8000FE48D0ED000AB0EE001A80EE810A8DEDFE
:103A9000050A059817F0B8FFCDE906019DED060B64
:103AA00011F0EAFA8DED0A0BF548D0ED000AB0EE00
:103AB000001A80EE810A8DED010A019817F0A4FF2B
:103AC000CDE902019DED020B11F0D6FA8DED060B4A
:103AD000EC4890ED001AF0EE000A81EE200A8DED20
:103AE000010A019817F090FFCDE902019DED020B4C
:103AF00011F0C2FA8DED040B9DED060B53EC102B6B
:103B00009DED040B51EC100B17F088FCCDE908017A
:103B10009DED0A0B53EC102B9DED080B51EC100B97
:103B200017F07CFCCDE90C019DED0E0B53EC102B36
:103B30009DED0C0B51EC100B17F098F9CDE910012D
:103B40009DED100B51EC100B17F05EF9CE4908609B
:103B5000CA48D0ED000AB0EE001A80EE810A8DED61
:103B6000050A059817F050FFCDE906019DED060BFB
:103B700011F082FA8DED0A0BC148D0ED000AB0EECB
:103B8000001A80EE810A8DED010A019817F03CFFC2
:103B9000CDE902019DED020B12F0D6FC8DED060B76
:103BA000B848D0ED000AB0EE001A80EE810A8DED23
:103BB000010A019817F028FFCDE902019DED020BE3
:103BC00012F0C2FC8DED040B9DED060B53EC102B97
:103BD0009DED040B51EC100B17F020FCCDE9080112
:103BE0009DED0A0B53EC102B9DED080B51EC100BC7
:103BF00017F014FCCDE90E01A048D0ED000AB0EE9C
:103C0000001A80EE810A8DED050A059817F0FCFE7A
:103C1000CDE906019DED060B12F096FC8DED0A0B29
:103C2000974890ED001AF0EE000A81EE200A8DED23
:103C3000010A019817F0E8FECDE902019DED020BA3
:103C400011F01AFA8DED060B8E48D0ED000AB0EE99
:103C5000001A80EE810A8DED010A019817F0D4FE5A
:103C6000CDE902019DED020B11F006FA8DED040B7A
:103C70009DED060B53EC102B9DED040B51EC100B3E
:103C800017F0CCFBCDE908019DED0A0B53EC102B8E
:103C90009DED080B51EC100B17F0C0FBCDE90C01AA
:103CA0009DED0E0B53EC102B9DED0C0B51EC100BFE
:103CB00017F0C0FDCDE910019DED100B51EC100B7C
:103CC00017F0A2F8714908606C48D0ED000AB0EE18
:103CD000001A80EE810A8DED050A059817F094FE12
:103CE000CDE906019DED060B12F02EFC8DED0A0BC1
:103CF0006348D0ED000AB0EE001A80EE810A8DED27
:103D0000010A019817F080FECDE902019DED020B3A
:103D100011F0B2F98DED060B5A48D0ED000AB0EE65
:103D2000001A80EE810A8DED010A019817F06CFEF1
:103D3000CDE902019DED020B12F006FC8DED040BA6
:103D40009DED060B53EC102B9DED040B51EC100B6D
:103D500017F064FBCDE908019DED0A0B53EC102B25
:103D60009DED080B51EC100B17F058FBCDE90E013F
:103D70004248D0ED000AB0EE001A80EE810A8DEDC7
:103D8000050A059817F040FECDE906019DED060BEA
:103D900011F072F98DED0A0B3948D0ED000AB0EE42
:103DA000001A80EE810A8DED010A019817F02CFEB1
:103DB000CDE902019DED020B12F0C6FB8DED060B65
:103DC0003048D0ED000AB0EE001A80EE810A8DED89
:103DD000010A019817F018FECDE902019DED020BD2
:103DE00011F04AF98DED040B9DED060B53EC102BF1
:103DF0009DED040B51EC100B17F010FBCDE9080101
:103E00009DED0A0B53EC102B9DED080B51EC100BA4
:103E100017F004FBCDE90C019DED0E0B53EC102BBC
:103E20009DED0C0B51EC100B17F020F8CDE91001B3
:103E30009DED100B51EC100B16F0E6FF14490860D5
:103E40000E48D0ED000AB0EE001A80EE810A8DED2A
:103E5000050A059817F0D8FDCDE906019DED060B82
:103E600012F072FB8DED0A0B0548D0ED000AB0EEA2
:103E7000001A80EE810A8DED010A0BE0A40C0020EF
:103E8000A80C0020AC0C0020C80C0020CC0C00209A
:103E9000D00C0020019817F0B7FDCDE902019DED8F
:103EA000020B12F051FB8DED060B4B48D0ED000AD2
:103EB000B0EE001A80EE810A8DED010A019817F02C
:103EC000A3FDCDE902019DED020B11F0D5F88DEDBA
:103ED000040B9DED060B53EC102B9DED040B51ECE8
:103EE000100B17F09BFACDE908019DED0A0B53EC7E
:103EF000102B9DED080B51EC100B17F08FFACDE94C
:103F00000E01364890ED001AF0EE000A81EE200A0C
:103F10008DED050A059817F077FDCDE906019DEDB9
:103F2000060B11F0A9F88DED0A0B2D48D0ED000A13
:103F3000B0EE001A80EE810A8DED010A019817F0AB
:103F400063FDCDE902019DED020B11F095F88DEDB9
:103F5000060B2148D0ED000AB0EE001A80EE810A6F
:103F60008DED010A019817F04FFDCDE902019DED9D
:103F7000020B12F0E9FA8DED040B9DED060B53ECEC
:103F8000102B9DED040B51EC100B17F047FACDE907
:103F900008019DED0A0B53EC102B9DED080B51EC25
:103FA000100B17F03BFACDE90C019DED0E0B53EC15
:103FB000102B9DED0C0B51EC100B17F03BFCCDE9D9
:103FC00010019DED100B51EC100B16F01DFF054973
:103FD000086019B000BD0000AC0C0020A40C00204B
:103FE000A80C0020D40C00200348006840F040409A
:103FF000014908607047000034EF00E003480068A2
:1040000040F47000014908607047000088ED00E04E
:1040100000B5B0EE404AB7EE000AF0EE404AF0EECE
:10402000442AF5EEC02AF1EE10FA07D2B1EE620A88
:10403000F0EE402AB1EE640AF0EE404AB6EE000A15
:10404000F4EEC02AF1EE10FA1FDD0122B7EE000AED
:10405000F4EEC02AF1EE10FA04DDDFED343AB0EEF2
:10406000630A00BDB7EE000A30EE620AF6EE000AFF
:1040700020EE203AB0EE430A00F0D2F9F8EE000A42
:1040800020EE200AF0EE402A17E000229FED280AD9
:10409000F4EEC02AF1EE10FA0DD2F0EE623AF5EE2F
:1040A000C04AF1EE10FA03D2B1EE630AF0EE403AE4
:1040B000B0EE630AD5E722EEA23A9FED1E0ADFEDCD
:1040C0001E0A00EE830ADFED1D0A40EE030A20EE11
:1040D000835A9FED1B0A73EE000A9FED1A0A00EE49
:1040E000830ADFED190AF0EE605A40EE035A85EEBE
:1040F000250AF0EE403AB0EE620A03EEA20AF0EEB4
:10410000403A012A05D19FED110A33EE800AF0EE04
:10411000403AF5EEC04AF1EE10FA03D2B1EE630A6E
:10412000F0EE403AB0EE630A9BE7000000000000AA
:10413000F304B539E0F939403F3118BF201B30C0D6
:10414000855725C1F7EAC641581484C1DB0FC93F22
:10415000F0EE402AB0EE603AB5EEC03AF1EE10FA59
:1041600019D1F5EEC02AF1EE10FA02D19FED590AED
:1041700070479FED590AF5EEC02AF1EE10FA00DD06
:10418000F6E7F5EEC02AF1EE10FA04D2F1EE403A6D
:10419000B0EE630AECE70020F0EE621AB0EE432ABC
:1041A000F5EEC01AF1EE10FA03D2F1EE613AF0EE3C
:1041B000631AB5EEC02AF1EE10FA03D2F1EE423ADC
:1041C000B0EE632AF4EEC21AF1EE10FA06DDF0EE5C
:1041D000420AB0EE612AF0EE601A0220C1EE823A85
:1041E000F0EE630ADFED3D3AF4EEE30AF1EE10FA89
:1041F00014DD9FED3B4AF7EE003A50EE843A73EE41
:10420000A03AF0EE631ADFED373A70EEA33AB0EE63
:10421000632AC1EE823AF0EE630A401CB0EE601AE7
:10422000B5EEC01AF1EE10FA03D2F1EE413AB0EE5B
:10423000631ADFED2D3AB4EEE31AF1EE10FA02D272
:10424000B0EE600A21E060EEA03AB0EE631ADFED56
:10425000273A9FED274A44EE013A63EE813AF0EEA9
:10426000631ADFED243A31EE234ADFED233A44EEC0
:10427000013AB0EE632AC1EE823AB0EE630AF0EE84
:10428000603A40EE203AB0EE630A012803DDF1EE19
:10429000403AB0EE630A194901EB8001D1ED003AD2
:1042A00073EE803AB0EE630AB5EEC03AF1EE10FA62
:1042B00005D2DFED133A73EEC03AB0EE630AF5EEC5
:1042C000C02AF1EE10FA03D2F1EE403AB0EE630AE2
:1042D00000BF4DE700000000DB0FC93FA330893E5F
:1042E000AF673B3FD7B3DD3FF304B539A854B8BF40
:1042F000AE5338BF3C1298407E3F8A40ACE4010088
:10430000DB0F4940B0EE402A9FED1F4AF5EE003A20
:1043100042EE043AF0EE630AFDEEE03A13EE901A34
:10432000F5EEC00AF1EE10FA00D2491E03EE901A23
:10433000F8EEE33A70EEE33AF0EE630ADFED133A9B
:1043400060EEA31AFCEEE13A13EE902AC2F30800E5
:1043500003EE900AF8EE633A31EEE31A0C4A02EBF0
:104360008002D2ED002A0A4B421C03EB820292ED3E
:10437000003AF7EE003A73EEC13A63EEA23AB0EEBD
:10438000630A01EE030A704783F9223E00000044ED
:104390003CDC0100F0EE400ADFED1E3A60EEA33A8D
:1043A000F0EE631AFDEEE13A13EE901AF5EEC00A54
:1043B000F1EE10FA00D2491E03EE901AF8EEE33A3D
:1043C00071EEE33AF0EE631ADFED133A21EEA32A21
:1043D000FCEEC23A13EE902AC2F3080003EE900AF4
:1043E000F8EE633A32EE631A0C4A02EB8002D2ED29
:1043F000002A0A4B421C03EB820292ED003AF7EED0
:10440000003A73EEC13A63EEA23AB0EE630A01EEEF
:10441000030A704783F9223E000000443CDC01009F
:1044200000B5B0EE402AB0EE420A00F003F820EEEC
:10443000020A00BD08B5F0EE400ACDED000A0C49B5
:104440000098A1EB500000909FED0A0A20EE800A30
:104450009DED001A20EE011ADDED001A9FED060A0F
:1044600001EE610A9DED001A20EE010A08BD000070
:1044700012141F5F12D3363FFF51D83FF0EE401A9F
:104480009FED570AF4EEC01AF1EE10FA06DC9FED2C
:10449000550AF4EEC01AF1EE10FA02D29FED520A5C
:1044A0007047BDEEE10AB8EEC04A71EEC44AB6EEFE
:1044B000001AF5EEC01AF1EE10FA03D8B1EE410A77
:1044C000B0EE401A9FED495AB0EE410A01EE850A5E
:1044D000BDEEC00A10EE100A00EE100AF8EEC03A67
:1044E0009FED435AB0EE440A03EEC50AF0EE400ACF
:1044F00030EEA40AF0EE400A9FED3E5AB0EE600A9C
:1045000003EEC50AF0EE400A9FED3B5AB0EE600A9A
:1045100003EEC50AF0EE400AF5EEC00AF1EE10FA1D
:1045200004D2B1EE600AB0EE401A01E0B0EE601ABB
:104530009FED320AB4EEC01AF1EE10FA0CD200F080
:10454000010121B1BFEE000AC0EE202A01E0F0EE29
:10455000602AB0EE620AA3E720EEA00AB0EE401A8D
:104560009FED270A21EE000AB0EE402A9FED250AB2
:1045700032EE000AB0EE402A22EE010AB0EE402AE6
:1045800022EE200AB0EE402A32EE200AB0EE402A97
:104590009FED1D0A21EE000AB0EE403A9FED1B0A86
:1045A00033EE000AB0EE403A23EE010AB0EE403A94
:1045B000B7EE000A33EE000AB0EE403A00F0010117
:1045C00039B1F0EE422AB1EE430AB0EE402AB0EE25
:1045D000623A82EE030AF0EE402AB0EE620A5FE72A
:1045E000192C0E46192C0EC60000000083F9223F3C
:1045F0000000C93F0000FE39D3BB2BB5F304B53929
:1046000035EC8C3A7811E4BDA2DA823C08AFE3BE07
:1046100010B5B0EE000A164B83ED000A1B789BB96B
:1046200090ED000A124B83ED000A1B788B54104B5F
:104630005C78531CCC540E4B9C78931CCC540C4B84
:10464000DC78D31CCC5412E090ED000A084B83EDCB
:10465000000ADB788B54064B9C78531CCC54044BDB
:104660005C78931CCC54024B1C78D31CCC5410BDEA
:10467000CC0D002070B505460E46144634B10748EF
:104680000068314642682846904705E003480068C4
:10469000314682682846904770BD00002408000219
:1046A00010B50246054850F82240208800EA010370
:1046B0000BB1012010BD0020FCE700000CBC010084
:1046C00010B50346054C54F823001AB9048B8C43EB
:1046D000048302E0048B0C43048310BD0CBC010076
:1046E0000246084B53F8220043898B434381838958
:1046F0008B43838183888B438380C3888B43C380B0
:10470000704700000CBC01000246064B53F8220023
:1047100043898B43438183898B43838183880B4304
:10472000838070470CBC0100034B53F82020538852
:104730000B435380704700000CBC0100034B53F83F
:10474000202053888B435380704700000CBC01002D
:104750000C480088072812DB0B4890ED000AF0EEA9
:104760000C0AB4EEE00AF1EE10FA08D80748007817
:10477000012804D10648007808B9012070470020BC
:10478000FCE700003C09002038090020BC030020A1
:104790003C04002010B52DED028B394800886428B8
:1047A00004DC37480088401C3549088034480088BC
:1047B000642808D1334890ED0B0A80ED0C0A0120E3
:1047C000BDEC028B10BD2E480088652854D12D48C1
:1047D00090ED0B0A90ED0C1AC0EE010AB7EE000A3C
:1047E00020EE800AB0EE408ADFED270AB0EE480ADC
:1047F00011F076FBF7EE000A30EEC00ADFED230A77
:1048000020EE200A1F4880ED0D0A90ED0D0A10EEF3
:10481000101A084610F0C4F920B11A4890ED0E0A9B
:1048200080ED0D0A1A480078012823D1154890ED33
:104830000D0AD0ED0E0A30EE600AF6EE000A80EEA8
:10484000201A80ED0F1A90ED0D0A80ED0E0A90ED02
:104850000F0AD0ED100A30EE600AF6EE000A80EE84
:10486000201A80ED111A90ED0F0A80ED100A002039
:10487000074908700120A3E700BF0020A0E700005F
:10488000F40C002090350020B1DC423ED048874A2D
:104890005C04002010B5114890ED000ADFED100A0D
:1048A00020EE200A9FED0F1AC0EE010A0E48008884
:1048B00000EE100AB8EE400A20EE800ADFED0B0A87
:1048C00020EE200ADFED0A0A80EE201A094880ED6A
:1048D000001A09490968086F804710BDC008002008
:1048E00000D8D64700401C46C80800203333534048
:1048F00000008046C40800200408000210B5D74814
:104900000EF028FF0EF0A2F8D5480EF023FFD44891
:1049100090ED010AD148D0ED010A30EE600AD1488D
:1049200080ED000A06F0ECFBCF48D0ED024AB0EE75
:10493000644AD0ED014AF0EE643AD0ED004AB0EEA0
:10494000643ACA48D0ED024AF0EE642AD0ED014A3A
:10495000B0EE642AD0ED004AF0EE641AC448D0EDFF
:10496000024AB0EE641AD0ED014AF0EE640AD0EDCE
:10497000004AB0EE640ABF48D0ED004A02F05AF98E
:10498000BD4890ED001AF8EE001A21EE211AD0ED84
:10499000001A21EE211AB948D0ED001AB0EE002A13
:1049A00061EE821A90ED002A01EEC21AF7EE001AAB
:1049B00031EE211AF0EE410A90ED001AF0EE001AE5
:1049C00021EE211AAE48D0ED001A21EE211AAD4891
:1049D000D0ED001AB0EE002A61EE821AA64890EDE2
:1049E000002A01EE821AB0EE410AFFF7B1FBDFEDBB
:1049F000A60A20EE200AA54880ED000AA148D0EDC5
:104A0000000AB0EE001A60EE810A9C4890ED001A90
:104A100060EE810A984890ED001AF0EE001A21EE3F
:104A2000211A9748D0ED001A41EE610AB0EE600AF3
:104A3000FFF7EEFADFED940A20EE200A944880EDAD
:104A4000000A8F4890ED001AF8EE001A21EE211AA4
:104A5000D0ED001A21EE211A8848D0ED001AB0EEF0
:104A6000002A61EE821A90ED002A01EEC21AF7EEDA
:104A7000001A31EE211AF0EE410A7F4890ED001A3B
:104A8000F0EE001A21EE211A7C48D0ED001A21EE3A
:104A9000211A7C48D0ED001AB0EE002A61EE821A8D
:104AA000774890ED002A01EE821AB0EE410AFFF736
:104AB0004FFBDFED750A20EE200A764880ED000AF4
:104AC0006B4890ED000ADFED740A20EE200A73486F
:104AD00080ED000A664890ED010ADFED6F0A20EED6
:104AE000200A6F4880ED000A614890ED020ADFED70
:104AF0006A0A20EE200A6B4880ED000AD0ED000A19
:104B000090ED001A60EE810A644890ED001AD0ED35
:104B1000001A41EE210A624890ED001AD0ED001A09
:104B200041EE210AB0EE600AFFF77AFC514880EDB1
:104B3000000A13F025F85C4890ED000A5748D0EDC4
:104B4000000A5A4890ED001A00EE810A564880ED9E
:104B5000000A90ED010A5248D0ED000A534890ED4A
:104B6000001A00EE810A504880ED010A90ED020A19
:104B70004C48D0ED000A4D4890ED001A00EE810A35
:104B8000494880ED020A90ED000AB5EEC00AF1EE48
:104B900010FA07D290ED000ADFED450A30EE200A48
:104BA00080ED000A404890ED000ADFED410AB4EEC6
:104BB000E00AF1EE10FA07DD90ED000ADFED3C0AA5
:104BC00030EE600A80ED000A374890ED010AB5EE3C
:104BD000C00AF1EE10FA07D290ED010ADFED340AB7
:104BE00030EE200A80ED010A2F4890ED010ADFED3A
:104BF000300AB4EEE00AF1EE10FA07DD90ED010A9A
:104C0000DFED2B0A30EE600A80ED010A264890EDB8
:104C1000020AB5EEC00AF1EE10FA07D290ED020AD0
:104C2000DFED230A30EE200A80ED020A1E4890EDE7
:104C3000020ADFED1F0AB4EEE00AF1EE10FA07DD1A
:104C400090ED020ADFED1A0A30EE600A80ED020AEA
:104C50000DF026FA0EF04EFA10BD00003849002083
:104C600048490020F00C0020BC450020B045002041
:104C7000A4450020700C0020CC0C0020D00C00209B
:104C8000D40C0020C80C0020E02E6542480C002007
:104C90004C0C0020500C0020F8C1F93C580C0020AE
:104CA0005C0C0020540C002008450020C00C0020A3
:104CB0000000B443002113210CE0481E104A02EB0F
:104CC0008000D0ED000A104600EB8100C0ED000A24
:104CD000481E81B20029F0DC094880ED000AD0EDC1
:104CE000000A90ED091A70EEC10AB7EE001AC0EE84
:104CF000811AFDEEE10A10EE900A00B27047000042
:104D000014270020F0EE400AC0ED000A90ED002AC2
:104D1000B0EE421A90ED002AF0EE421A90ED002A11
:104D2000B0EE420A022131E000EB810292ED002A4E
:104D3000B4EEC12AF1EE10FA06DD00EB810292ED2D
:104D4000002AB0EE421A0EE000EB810292ED002A3A
:104D5000B4EEE12AF1EE10FA05D200EB810292EDF9
:104D6000002AF0EE421A00EB810292ED002A32EEA8
:104D7000002AB0EE420A4A1E00EB820292ED002A9F
:104D800000EB810282ED002A4A1ED1B20029CBD16C
:104D9000012130EE412A32EE612AB0EE420A02EEE3
:104DA000101AB8EE422AC0EE022AB0EE620A70472C
:104DB0003EB5044694ED000A5548D0ED000A30EEA9
:104DC000600ADFED540AB4EEE00AF1EE10FA3CD8C6
:104DD00094ED010AD0ED010A30EE600ADFED4D0AD4
:104DE000B4EEE00AF1EE10FA2FD894ED020AD0EDFD
:104DF000020A30EE600ADFED470AB4EEE00AF1EE97
:104E000010FA22D80EF088FC01281ED1424890EDFD
:104E1000000AD4ED000A30EE200A80ED000A90ED81
:104E2000010AD4ED010A30EE200A80ED010A90ED6E
:104E3000020AD4ED020A30EE200A80ED020A374859
:104E40000088401C354908800FE09FED350A324844
:104E500080ED000A9FED320A80ED010A9FED300AD5
:104E600080ED020A00202D49088094ED000A2848B0
:104E700080ED000A94ED010A80ED010A94ED020A2A
:104E800080ED020A25480088C8283EDB2248D0ED84
:104E9000000A2248008800EE100AB8EE400A80EEB0
:104EA000801A204880ED001A1B48D0ED010A1B48EB
:104EB000008800EE100AB8EE400A80EE801A194809
:104EC00080ED011A1448D0ED020A1448008800EE63
:104ED000100AB8EE400A80EE801A124880ED021ADD
:104EE000FEF778FB00200121022203469FED0E0A07
:104EF000CDE90021029064224FF4FA610B48FCF7DF
:104F00009BF801200A4948723EBD0020FCE70000E2
:104F1000501000200000FA43441000203A01002005
:104F20000000000050180020CDCC4C3EF00D0020B9
:104F3000224F002010B5A64890ED0C0A80ED2B0AF8
:104F400090ED600A80ED7F0AA24890ED000AA0482B
:104F500080ED2C0AA04890ED000A9D4880ED800A63
:104F6000A83008F011F99D4808F00EF99848D0EDE6
:104F70004F0A9B4890ED001A81EE200A9448D0ED2C
:104F80002B0A30EEC00ADFED970A20EE200A964881
:104F900080ED000A8E48D0EDA30A944890ED001AE7
:104FA00081EE200A8A48D0ED7F0A30EEC00ADFED9C
:104FB0008D0A20EE200A8E4880ED000A844890ED8C
:104FC0002B0A874880ED000A814890ED7F0A8748C8
:104FD00080ED000A874890ED000A8348D0ED000A72
:104FE00020EE200A7A48D0ED2B0A834890ED001A73
:104FF00001EE200A7648D0ED360A30EE200A80ED28
:10500000360AD0ED381AB0EE611AD0ED381AF1EE4A
:10501000611AF0EE610AD0ED361AB0EE610A12F0B4
:1050200081FB6B4880ED360A724890ED000A7048AB
:10503000D0ED000A20EE200A6548D0ED7F0A6E48C8
:1050400090ED001A01EE200A6148D0ED8A0A30EE98
:10505000200A80ED8A0AD0ED8C1AB0EE611AD0EDEC
:105060008C1AF1EE611AF0EE610AD0ED8A1AB0EEF8
:10507000610A12F057FB564880ED8A0A5F4890EDAE
:10508000000A534880EDD40A00F5527007F008FF7B
:105090004F4890EDD30A5A48D0ED000A30EE600A2E
:1050A000DFED500A20EE200A4948D0EDF70A80EEE5
:1050B000201A544880ED001A454890EDD30A524812
:1050C000D0ED000A20EE200A5048D0ED000A4D48ED
:1050D00090ED001A00EE810A3D48D0EDDE0A30EE78
:1050E000200A80EDDE0AD0EDE01AB0EE611AD0EDB4
:1050F000E01AF1EE611AF0EE610AD0EDDE1AB0EEC0
:10510000610A12F00FFB324880EDDE0A90EDD30AFF
:105110003B4880ED000A2E4890EDE00AB0EE001A00
:10512000C0EE010A90EDDE0AB5EEC00AF1EE10FA0B
:1051300002DD90EDDE0A04E0254890EDDE0AB1EED6
:10514000400AF4EEC00AF1EE10FA24D2304890ED95
:10515000000AB5EEC00AF1EE10FA02DD90ED000A89
:1051600004E02B4890ED000AB1EE400AF3EE0E0A7F
:10517000B4EEE00AF1EE10FA0DD826480088401C83
:105180002449088008460088B0F5FA7F0ADB4FF40E
:10519000FA70088006E01F49088800EBD0714910BA
:1051A0001C4A11801B480088B0F5C87F0FDB1A48E5
:1051B00008F094FD0948A83008F090FD174890EDDC
:1051C000000A034880EDA90A00201249088010BD9A
:1051D000BC180020580C00205C0C0020B41A0020E1
:1051E000240D002000007A44280D00202C0D002002
:1051F000300D0020380D0020340D0020C40C00209C
:105200001C0D0020200D00203C0D0020400D002032
:10521000540C00201A0D0020041C0020500C00200B
:1052200010B50EF047F80EF017FE0EF089FD0EF0E7
:105230003DFEFBF743F9FCF71BF8FBF7A3FE0BF071
:10524000ADFB0DF0E5FE00F0B9FE0CF061F800F0EA
:1052500043F908F06FFD07F07BFC4FF4FA7012F091
:10526000A7FA00F013FB0DF029F8FCF74DFD09F04B
:105270001FF80FF033FA0CF0ADFE0EF0B3F90EF09C
:10528000A5FCC82012F094FA10BD000010B52DED59
:10529000028B86B000200390049005907848008827
:1052A000B0F57A7F2ED17748B0F9000016F04FF8AC
:1052B00041EC180B9FED740B53EC102B16F0ACF96E
:1052C00020D87348B0F9000016F041F841EC180BF3
:1052D0009FED700B53EC102B16F064F812D86F484A
:1052E000B0F9000016F033F841EC180B9FED690B94
:1052F00053EC102B16F056F804D869480088401C6F
:10530000674908805E480088B0F57A7F2ED15D48F5
:10531000B0F9000016F01BF841EC180B9FED5A0B8A
:1053200053EC102B16F078F920D85948B0F900004A
:1053300016F00DF841EC180B9FED560B53EC102BAB
:1053400016F030F812D85548B0F9000015F0FFFFFC
:1053500041EC180B9FED4F0B53EC102B16F022F87D
:1053600004D84F480088B0F57A7F03DA4D480078BA
:1053700004287DD14C48008800287DD14B4890ED11
:10538000000A4B4880ED000A4A4890ED000A4A485E
:1053900080ED000A002425E0484890ED000AF3EE75
:1053A000040AB4EEE00AF1EE10FA1BD8002012E075
:1053B00003A901EB800191ED000A414901EB800155
:1053C000D1ED000A30EE200A03A901EB800181ED46
:1053D000000A411C08B20328EADB052012F0E8F9B4
:1053E000601C84B2C82CD7DBDDED030A00EE104A46
:1053F000B8EE400A80EE801A324880ED001ADDEDEA
:10540000040A00EE104AB8EE400A80EE801A80EDE1
:10541000011ADDED050A00EE104AB8EE400A80EEF2
:10542000801A80ED021A00201D4908802649204874
:1054300090ED000A00200FF07DF923491E4890ED01
:10544000000A01200FF076F9002001210222034614
:105450009FED1E0ACDE90021029064224FF4FA71FB
:105460001B48FBF7E9FD01201A494872002000E0C3
:1054700002E00C49087000BF06B0BDEC028B10BD05
:1054800020030020260300200000000000C062402E
:105490002403002000000000008036C0220300200A
:1054A00020010020C80D002034030020480C0020FB
:1054B000180100204C0C00201C010020700C002062
:1054C000D835002038100020F03E0020CDCC4C3ED6
:1054D000F00D0020224F00201CB59FED0E0A8DED2F
:1054E000010A9FED0C0A8DED000A01A900200BF0C6
:1054F000CDFF20B19DED010A074880ED000A694605
:1055000001200BF0C3FF20B19DED000A034880EDA0
:10551000000A1CBD00000000180100201C01002032
:1055200010B50E480068082102680A2090470B4811
:105530000068042102680A2090470A20FDF7FAFB60
:1055400006480068082142680A209047034800681E
:10555000042142680A20904710BD00002408000280
:1055600070B500240CF05BFC002514E06006040E0E
:1055700020210620FFF7D8F800F0A8F81021062017
:10558000FFF78EF8044320210620FFF7D7F800F03C
:105590009DF8681CC5B2082DE8DB204670BD10B52B
:1055A00004210A20FFF79CF810BD10B504210A2041
:1055B000FFF7AAF810BD70B5044608250CF035FCBD
:1055C0001BE020210620FFF7B9F800F07FF804F077
:1055D000800020B110210620FFF7A6F803E010217B
:1055E0000620FFF7ABF86006040E00F06FF82021EC
:1055F0000620FFF799F800F069F8281EA5F10101CF
:10560000CDB2DED120210620FFF798F800F004F893
:1056100000B970BD00BFFCE710B50CF006FC2021FE
:105620000620FFF78BF800F051F810210620FFF755
:105630007BF80CF0F4FB00F049F820210620FFF77E
:1056400073F800F043F810210620FFF729F828B17D
:1056500020210620FFF772F8002010BD202106202F
:10566000FFF76CF800F032F80120F6E710B50CF007
:10567000DCFB20210620FFF757F810210620FFF75A
:1056800053F800F023F810210620FFF757F800F038
:105690001DF810BD10B50CF0C8FB20210620FFF747
:1056A0004DF800F013F810210620FFF747F800F03E
:1056B0000DF820210620FFF737F800F007F8102139
:1056C0000620FFF731F800F001F810BD7047000028
:1056D00010B54FF47A7012F06BF800241FE04321EC
:1056E000D020FDF72DFB20490968081A1E490860E3
:1056F0004521D020FDF724FB1C49096808441B49BB
:1057000008604721D020FDF71BFB19490968081ADA
:1057100017490860052012F04BF8601CC4B2642CD5
:10572000DDDB11480068642190FBF1F000EE100A07
:10573000B8EEC00A0F4880ED000A0C48006890FBE4
:10574000F1F000EE100AB8EEC00A0A4880ED010A36
:105750000748006890FBF1F000EE100AB8EEC00AAE
:10576000044880ED020A10BDFC0200200003002066
:1057700004030020501800201CB50446324800885D
:10578000401C3149088008460088012805D10122C3
:105790000A210E200DF092FC54E02B4800880628C8
:1057A00050D103210E200DF067FC8DF8000004217C
:1057B0000E200DF061FC8DF8010005210E200DF08A
:1057C0005BFC8DF8020006210E200DF055FC8DF8D3
:1057D000030007210E200DF04FFC8DF80400082176
:1057E0000E200DF049FC8DF805009DF800009DF895
:1057F000011040EA012000B200EE100AB8EEC00A23
:1058000084ED000A9DF802009DF8031040EA012093
:1058100000B2404200EE100AB8EEC00A84ED010A60
:105820009DF804009DF8051040EA012000B200EE4A
:10583000100AB8EEC00A84ED020A0020024908806E
:1058400001201CBD0020FCE7D408002010B50E4844
:10585000006810210268062090470B48006820214C
:105860000268062090470A2011F0A2FF064800684F
:1058700010214268062090470348006820214268B2
:105880000620904710BD00002408000210B57521C5
:10589000D0200DF0F1FB32490870084600786828E6
:1058A00019D100226B21D0200DF008FC0022192113
:1058B000D0200DF003FC00221A21D0200DF0FEFBB9
:1058C00010221B21D0200DF0F9FB18221C21D02022
:1058D0000DF0F4FB21E02248007898281DD1002229
:1058E0006B21D0200DF0EAFB00221921D0200DF011
:1058F000E5FB00221A21D0200DF0E0FB10221B2135
:10590000D0200DF0DBFB18221C21D0200DF0D6FB9F
:1059100003221D21D0200DF0D1FB4FF4FA7011F0BD
:1059200047FFFFF7D5FE0F48DFED0F0A9FED0F0A87
:105930000DF004FB0E48F3EE0E0A9FED0C0A0DF07D
:10594000FDFA0C48F0EE000A9FED080A0DF0F6FA99
:105950000948F3EE0E0A9FED050A0DF0EFFA10BDAF
:10596000F8020020201800200000484200004843B0
:105970000818002038180020F017002010B508F093
:1059800055FC104800681049C26A104890470D48FD
:1059900000680F49C26A0D4890470A4800680D49DF
:1059A000C26A0A489047074800680B49C26A07481C
:1059B00090474FF47A731A461946184608F050FC7F
:1059C00010BD0000580800028C090020000C0040A7
:1059D000A4090020BC090020D40900200348006865
:1059E00020F00200014908607047000010ED00E05F
:1059F000034951F82010034A1143034A11607047CC
:105A00003CBC01000000FFFF0CED00E02DE9F0437D
:105A10002DED088B87B0B0EE409A06460C46F0EEAE
:105A200060AA9046B0EE41BAF0EE618A1D46DDF8FC
:105A3000589000279FEDFE0AF0EE40BA0020039038
:105A400004900590069000BF00BF0190029000BF37
:105A5000F8480078022876D105EBC50000EB051167
:105A600004F51F7000EBC10000EB860090ED000A0A
:105A7000B5EEC00AF1EE10FA0CDD05EBC50000EB47
:105A8000051104F51F7000EBC10000EB860090EDDE
:105A9000000A0DE005EBC50000EB051104F51F70D1
:105AA00000EBC10000EB860090ED000AB1EE400A69
:105AB000F3EE0E0A60EE200ADF4890ED000AB5EE24
:105AC000C00AF1EE10FA02DD90ED000A04E0DA48B7
:105AD00090ED000AB1EE400AF4EEC00AF1EE10FAC1
